{
  "contractName": "Invoice",
  "abi": [
    {
      "constant": true,
      "inputs": [
        {
          "name": "",
          "type": "uint256"
        }
      ],
      "name": "keys",
      "outputs": [
        {
          "name": "",
          "type": "uint256"
        }
      ],
      "payable": false,
      "stateMutability": "view",
      "type": "function"
    },
    {
      "constant": true,
      "inputs": [
        {
          "name": "",
          "type": "uint256"
        }
      ],
      "name": "invoices",
      "outputs": [
        {
          "name": "",
          "type": "uint256"
        }
      ],
      "payable": false,
      "stateMutability": "view",
      "type": "function"
    },
    {
      "constant": false,
      "inputs": [],
      "name": "renounceOwnership",
      "outputs": [],
      "payable": false,
      "stateMutability": "nonpayable",
      "type": "function"
    },
    {
      "constant": true,
      "inputs": [],
      "name": "owner",
      "outputs": [
        {
          "name": "",
          "type": "address"
        }
      ],
      "payable": false,
      "stateMutability": "view",
      "type": "function"
    },
    {
      "constant": true,
      "inputs": [],
      "name": "isOwner",
      "outputs": [
        {
          "name": "",
          "type": "bool"
        }
      ],
      "payable": false,
      "stateMutability": "view",
      "type": "function"
    },
    {
      "constant": true,
      "inputs": [
        {
          "name": "",
          "type": "uint256"
        }
      ],
      "name": "transactionInvoices",
      "outputs": [
        {
          "name": "date",
          "type": "uint256"
        },
        {
          "name": "apesCustomer",
          "type": "uint64"
        },
        {
          "name": "destName",
          "type": "string"
        },
        {
          "name": "destPhone",
          "type": "string"
        },
        {
          "name": "destCountry",
          "type": "string"
        },
        {
          "name": "destCity",
          "type": "string"
        },
        {
          "name": "destDeliverAddress",
          "type": "string"
        },
        {
          "name": "destDate",
          "type": "string"
        }
      ],
      "payable": false,
      "stateMutability": "view",
      "type": "function"
    },
    {
      "constant": false,
      "inputs": [
        {
          "name": "newOwner",
          "type": "address"
        }
      ],
      "name": "transferOwnership",
      "outputs": [],
      "payable": false,
      "stateMutability": "nonpayable",
      "type": "function"
    },
    {
      "anonymous": false,
      "inputs": [
        {
          "indexed": false,
          "name": "transactId",
          "type": "uint256"
        }
      ],
      "name": "customIdGenerated",
      "type": "event"
    },
    {
      "anonymous": false,
      "inputs": [
        {
          "indexed": false,
          "name": "_customer",
          "type": "uint64"
        },
        {
          "indexed": false,
          "name": "_destName",
          "type": "string"
        },
        {
          "indexed": false,
          "name": "_destPhone",
          "type": "string"
        },
        {
          "indexed": false,
          "name": "_destCountry",
          "type": "string"
        },
        {
          "indexed": false,
          "name": "_destCity",
          "type": "string"
        },
        {
          "indexed": false,
          "name": "_destDeliverAddress",
          "type": "string"
        },
        {
          "indexed": false,
          "name": "date",
          "type": "uint256"
        },
        {
          "indexed": false,
          "name": "transactionId",
          "type": "uint256"
        }
      ],
      "name": "invoiceGenerated",
      "type": "event"
    },
    {
      "anonymous": false,
      "inputs": [
        {
          "indexed": true,
          "name": "previousOwner",
          "type": "address"
        },
        {
          "indexed": true,
          "name": "newOwner",
          "type": "address"
        }
      ],
      "name": "OwnershipTransferred",
      "type": "event"
    },
    {
      "constant": false,
      "inputs": [
        {
          "name": "_address",
          "type": "address"
        }
      ],
      "name": "setApesCustomerContractAddress",
      "outputs": [],
      "payable": false,
      "stateMutability": "nonpayable",
      "type": "function"
    },
    {
      "constant": true,
      "inputs": [],
      "name": "getApesCustomerContractAddress",
      "outputs": [
        {
          "name": "",
          "type": "address"
        }
      ],
      "payable": false,
      "stateMutability": "view",
      "type": "function"
    },
    {
      "constant": false,
      "inputs": [
        {
          "name": "_customer",
          "type": "uint64"
        },
        {
          "name": "_destName",
          "type": "string"
        },
        {
          "name": "_destPhone",
          "type": "string"
        },
        {
          "name": "_destCountry",
          "type": "string"
        },
        {
          "name": "_destCity",
          "type": "string"
        },
        {
          "name": "_destDeliverAddress",
          "type": "string"
        },
        {
          "name": "_destDate",
          "type": "string"
        }
      ],
      "name": "generateInvoice",
      "outputs": [
        {
          "name": "",
          "type": "uint256"
        }
      ],
      "payable": false,
      "stateMutability": "nonpayable",
      "type": "function"
    },
    {
      "constant": true,
      "inputs": [],
      "name": "totalTransactions",
      "outputs": [
        {
          "name": "",
          "type": "uint256"
        }
      ],
      "payable": false,
      "stateMutability": "view",
      "type": "function"
    },
    {
      "constant": true,
      "inputs": [
        {
          "name": "transactId",
          "type": "uint256"
        }
      ],
      "name": "checkifTransactIdExist",
      "outputs": [
        {
          "name": "",
          "type": "uint256"
        }
      ],
      "payable": false,
      "stateMutability": "view",
      "type": "function"
    }
  ],
  "bytecode": "0x60806040526010600155600154600a0a600255336000806101000a81548173ffffffffffffffffffffffffffffffffffffffff021916908373ffffffffffffffffffffffffffffffffffffffff1602179055506000809054906101000a900473ffffffffffffffffffffffffffffffffffffffff1673ffffffffffffffffffffffffffffffffffffffff16600073ffffffffffffffffffffffffffffffffffffffff167f8be0079c531659141344cd1fd0a4f28419497f9722a3daafe3b4186f6b6457e060405160405180910390a3611830806100dd6000396000f3fe608060405234801561001057600080fd5b50600436106100b45760003560e01c80638f32d59b116100715780638f32d59b146105ab578063b60ea5f0146105cd578063b9a6003814610617578063cf0cae6614610635578063f2fde38b1461091a578063fa2464bb1461095e576100b4565b80630cb6aaf1146100b95780633a5d821f146100fb5780634e6d14051461013f578063715018a614610181578063751655051461018b5780638da5cb5b14610561575b600080fd5b6100e5600480360360208110156100cf57600080fd5b81019080803590602001909291905050506109a0565b6040518082815260200191505060405180910390f35b61013d6004803603602081101561011157600080fd5b81019080803573ffffffffffffffffffffffffffffffffffffffff1690602001909291905050506109c1565b005b61016b6004803603602081101561015557600080fd5b8101908080359060200190929190505050610a16565b6040518082815260200191505060405180910390f35b610189610a2e565b005b61054b600480360360e08110156101a157600080fd5b81019080803567ffffffffffffffff169060200190929190803590602001906401000000008111156101d257600080fd5b8201836020820111156101e457600080fd5b8035906020019184600183028401116401000000008311171561020657600080fd5b91908080601f016020809104026020016040519081016040528093929190818152602001838380828437600081840152601f19601f8201169050808301925050505050505091929192908035906020019064010000000081111561026957600080fd5b82018360208201111561027b57600080fd5b8035906020019184600183028401116401000000008311171561029d57600080fd5b91908080601f016020809104026020016040519081016040528093929190818152602001838380828437600081840152601f19601f8201169050808301925050505050505091929192908035906020019064010000000081111561030057600080fd5b82018360208201111561031257600080fd5b8035906020019184600183028401116401000000008311171561033457600080fd5b91908080601f016020809104026020016040519081016040528093929190818152602001838380828437600081840152601f19601f8201169050808301925050505050505091929192908035906020019064010000000081111561039757600080fd5b8201836020820111156103a957600080fd5b803590602001918460018302840111640100000000831117156103cb57600080fd5b91908080601f016020809104026020016040519081016040528093929190818152602001838380828437600081840152601f19601f8201169050808301925050505050505091929192908035906020019064010000000081111561042e57600080fd5b82018360208201111561044057600080fd5b8035906020019184600183028401116401000000008311171561046257600080fd5b91908080601f016020809104026020016040519081016040528093929190818152602001838380828437600081840152601f19601f820116905080830192505050505050509192919290803590602001906401000000008111156104c557600080fd5b8201836020820111156104d757600080fd5b803590602001918460018302840111640100000000831117156104f957600080fd5b91908080601f016020809104026020016040519081016040528093929190818152602001838380828437600081840152601f19601f820116905080830192505050505050509192919290505050610afe565b6040518082815260200191505060405180910390f35b610569611087565b604051808273ffffffffffffffffffffffffffffffffffffffff1673ffffffffffffffffffffffffffffffffffffffff16815260200191505060405180910390f35b6105b36110b0565b604051808215151515815260200191505060405180910390f35b6105d5611107565b604051808273ffffffffffffffffffffffffffffffffffffffff1673ffffffffffffffffffffffffffffffffffffffff16815260200191505060405180910390f35b61061f611142565b6040518082815260200191505060405180910390f35b6106616004803603602081101561064b57600080fd5b810190808035906020019092919050505061114f565b604051808981526020018867ffffffffffffffff1667ffffffffffffffff16815260200180602001806020018060200180602001806020018060200187810387528d818151815260200191508051906020019080838360005b838110156106d55780820151818401526020810190506106ba565b50505050905090810190601f1680156107025780820380516001836020036101000a031916815260200191505b5087810386528c818151815260200191508051906020019080838360005b8381101561073b578082015181840152602081019050610720565b50505050905090810190601f1680156107685780820380516001836020036101000a031916815260200191505b5087810385528b818151815260200191508051906020019080838360005b838110156107a1578082015181840152602081019050610786565b50505050905090810190601f1680156107ce5780820380516001836020036101000a031916815260200191505b5087810384528a818151815260200191508051906020019080838360005b838110156108075780820151818401526020810190506107ec565b50505050905090810190601f1680156108345780820380516001836020036101000a031916815260200191505b50878103835289818151815260200191508051906020019080838360005b8381101561086d578082015181840152602081019050610852565b50505050905090810190601f16801561089a5780820380516001836020036101000a031916815260200191505b50878103825288818151815260200191508051906020019080838360005b838110156108d35780820151818401526020810190506108b8565b50505050905090810190601f1680156109005780820380516001836020036101000a031916815260200191505b509e50505050505050505050505050505060405180910390f35b61095c6004803603602081101561093057600080fd5b81019080803573ffffffffffffffffffffffffffffffffffffffff169060200190929190505050611548565b005b61098a6004803603602081101561097457600080fd5b8101908080359060200190929190505050611565565b6040518082815260200191505060405180910390f35b600681815481106109ad57fe5b906000526020600020016000915090505481565b6109c96110b0565b6109d257600080fd5b80600360006101000a81548173ffffffffffffffffffffffffffffffffffffffff021916908373ffffffffffffffffffffffffffffffffffffffff16021790555050565b60056020528060005260406000206000915090505481565b610a366110b0565b610a3f57600080fd5b600073ffffffffffffffffffffffffffffffffffffffff166000809054906101000a900473ffffffffffffffffffffffffffffffffffffffff1673ffffffffffffffffffffffffffffffffffffffff167f8be0079c531659141344cd1fd0a4f28419497f9722a3daafe3b4186f6b6457e060405160405180910390a360008060006101000a81548173ffffffffffffffffffffffffffffffffffffffff021916908373ffffffffffffffffffffffffffffffffffffffff160217905550565b6000610b086110b0565b610b1157600080fd5b6000600360009054906101000a900473ffffffffffffffffffffffffffffffffffffffff1673ffffffffffffffffffffffffffffffffffffffff1663d4aa2b398a6040518263ffffffff1660e01b8152600401808267ffffffffffffffff1667ffffffffffffffff16815260200191505060206040518083038186803b158015610b9a57600080fd5b505afa158015610bae573d6000803e3d6000fd5b505050506040513d6020811015610bc457600080fd5b8101908080519060200190929190505050905060008163ffffffff161415610beb57600080fd5b6000610bf685611582565b9050610c00611710565b6040518061010001604052804281526020018c67ffffffffffffffff1681526020018b81526020018a8152602001898152602001888152602001878152602001868152509050600481908060018154018082558091505090600182039060005260206000209060080201600090919290919091506000820151816000015560208201518160010160006101000a81548167ffffffffffffffff021916908367ffffffffffffffff1602179055506040820151816002019080519060200190610cc992919061175f565b506060820151816003019080519060200190610ce692919061175f565b506080820151816004019080519060200190610d0392919061175f565b5060a0820151816005019080519060200190610d2092919061175f565b5060c0820151816006019080519060200190610d3d92919061175f565b5060e0820151816007019080519060200190610d5a92919061175f565b50505050600480549050600560008481526020019081526020016000208190555060068290806001815401808255809150509060018203906000526020600020016000909192909190915055507f96178aa000dfed3d6eb808d1d06978265b2e09e21870ae248e29c3f90d35a394826040518082815260200191505060405180910390a17f1462e2e0e40774f3ac5479bb107e1d1014fdac0cedcc1a8e6e288bab631dc52481602001518260400151836060015184608001518560a001518660c00151876000015189604051808967ffffffffffffffff1667ffffffffffffffff168152602001806020018060200180602001806020018060200188815260200187815260200186810386528d818151815260200191508051906020019080838360005b83811015610e99578082015181840152602081019050610e7e565b50505050905090810190601f168015610ec65780820380516001836020036101000a031916815260200191505b5086810385528c818151815260200191508051906020019080838360005b83811015610eff578082015181840152602081019050610ee4565b50505050905090810190601f168015610f2c5780820380516001836020036101000a031916815260200191505b5086810384528b818151815260200191508051906020019080838360005b83811015610f65578082015181840152602081019050610f4a565b50505050905090810190601f168015610f925780820380516001836020036101000a031916815260200191505b5086810383528a818151815260200191508051906020019080838360005b83811015610fcb578082015181840152602081019050610fb0565b50505050905090810190601f168015610ff85780820380516001836020036101000a031916815260200191505b50868103825289818151815260200191508051906020019080838360005b83811015611031578082015181840152602081019050611016565b50505050905090810190601f16801561105e5780820380516001836020036101000a031916815260200191505b509d505050505050505050505050505060405180910390a1819350505050979650505050505050565b60008060009054906101000a900473ffffffffffffffffffffffffffffffffffffffff16905090565b60008060009054906101000a900473ffffffffffffffffffffffffffffffffffffffff1673ffffffffffffffffffffffffffffffffffffffff163373ffffffffffffffffffffffffffffffffffffffff1614905090565b60006111116110b0565b61111a57600080fd5b600360009054906101000a900473ffffffffffffffffffffffffffffffffffffffff16905090565b6000600480549050905090565b6004818154811061115c57fe5b90600052602060002090600802016000915090508060000154908060010160009054906101000a900467ffffffffffffffff1690806002018054600181600116156101000203166002900480601f0160208091040260200160405190810160405280929190818152602001828054600181600116156101000203166002900480156112285780601f106111fd57610100808354040283529160200191611228565b820191906000526020600020905b81548152906001019060200180831161120b57829003601f168201915b505050505090806003018054600181600116156101000203166002900480601f0160208091040260200160405190810160405280929190818152602001828054600181600116156101000203166002900480156112c65780601f1061129b576101008083540402835291602001916112c6565b820191906000526020600020905b8154815290600101906020018083116112a957829003601f168201915b505050505090806004018054600181600116156101000203166002900480601f0160208091040260200160405190810160405280929190818152602001828054600181600116156101000203166002900480156113645780601f1061133957610100808354040283529160200191611364565b820191906000526020600020905b81548152906001019060200180831161134757829003601f168201915b505050505090806005018054600181600116156101000203166002900480601f0160208091040260200160405190810160405280929190818152602001828054600181600116156101000203166002900480156114025780601f106113d757610100808354040283529160200191611402565b820191906000526020600020905b8154815290600101906020018083116113e557829003601f168201915b505050505090806006018054600181600116156101000203166002900480601f0160208091040260200160405190810160405280929190818152602001828054600181600116156101000203166002900480156114a05780601f10611475576101008083540402835291602001916114a0565b820191906000526020600020905b81548152906001019060200180831161148357829003601f168201915b505050505090806007018054600181600116156101000203166002900480601f01602080910402602001604051908101604052809291908181526020018280546001816001161561010002031660029004801561153e5780601f106115135761010080835404028352916020019161153e565b820191906000526020600020905b81548152906001019060200180831161152157829003601f168201915b5050505050905088565b6115506110b0565b61155957600080fd5b61156281611618565b50565b600060056000838152602001908152602001600020549050919050565b60008042836040516020018083815260200182805190602001908083835b602083106115c357805182526020820191506020810190506020830392506115a0565b6001836020036101000a038019825116818451168082178552505050505050905001925050506040516020818303038152906040528051906020012060001c9050600254818161160f57fe5b06915050919050565b600073ffffffffffffffffffffffffffffffffffffffff168173ffffffffffffffffffffffffffffffffffffffff16141561165257600080fd5b8073ffffffffffffffffffffffffffffffffffffffff166000809054906101000a900473ffffffffffffffffffffffffffffffffffffffff1673ffffffffffffffffffffffffffffffffffffffff167f8be0079c531659141344cd1fd0a4f28419497f9722a3daafe3b4186f6b6457e060405160405180910390a3806000806101000a81548173ffffffffffffffffffffffffffffffffffffffff021916908373ffffffffffffffffffffffffffffffffffffffff16021790555050565b60405180610100016040528060008152602001600067ffffffffffffffff1681526020016060815260200160608152602001606081526020016060815260200160608152602001606081525090565b828054600181600116156101000203166002900490600052602060002090601f016020900481019282601f106117a057805160ff19168380011785556117ce565b828001600101855582156117ce579182015b828111156117cd5782518255916020019190600101906117b2565b5b5090506117db91906117df565b5090565b61180191905b808211156117fd5760008160009055506001016117e5565b5090565b9056fea165627a7a7230582047be1d4718580dc2ddf4480109b5a57c6c58440920b53df79df0fb7c6539cb7f0029",
  "source": "pragma solidity ^0.5.0;\n\nimport \"./zeppelin/Ownable.sol\";\n\n\n\ncontract apesCustomerInterface{\n    function checkIfBussinessIdExist(uint64)public view returns (uint32);\n}\n\n\ncontract Invoice is Ownable{\n\n\n\n  uint private idDigits = 16;\n  uint private idModulus = 10 ** idDigits;\n\n  struct Invoice{\n    uint date;\n    uint64 apesCustomer;\n    string destName;\n    string destPhone;\n    string destCountry;\n    string destCity;\n    string destDeliverAddress;\n    string destDate;\n  }\n\n  apesCustomerInterface  apesCustomerContract;\n\n  Invoice[] public transactionInvoices;\n\n  mapping ( uint => uint ) public invoices;\n\n  uint[] public keys;\n\n    function setApesCustomerContractAddress(address _address) public onlyOwner  {\n      apesCustomerContract = apesCustomerInterface(_address);\n    }\n\n    function getApesCustomerContractAddress() public view onlyOwner returns (apesCustomerInterface) {\n      return apesCustomerContract;\n    }\n\n    event customIdGenerated(uint transactId);\n\n    event invoiceGenerated(uint64  _customer, string   _destName, string  _destPhone,\n         string  _destCountry, string _destCity, string _destDeliverAddress,\n         uint date, uint transactionId);\n\n\n    function generateInvoice(uint64  _customer, string memory  _destName, string memory  _destPhone,\n         string memory  _destCountry, string memory  _destCity, string memory  _destDeliverAddress,\n         string memory  _destDate\n    ) public onlyOwner returns (uint){\n\n      uint32 checkifExist = apesCustomerContract.checkIfBussinessIdExist(_customer);\n\n      require (checkifExist != 0);\n\n      uint rand = _generateRandomId(_destDeliverAddress);\n\n      /*uint invoice = invoices[rand];\n      require (invoice == 0);*/\n\n      Invoice memory invoice = Invoice({\n        date:now,\n        apesCustomer:_customer,\n        destName:_destName,\n        destPhone: _destPhone,\n        destCountry: _destCountry,\n        destCity: _destCity,\n        destDeliverAddress: _destDeliverAddress,\n        destDate: _destDate\n      });\n\n      transactionInvoices.push(invoice);\n\n      invoices[rand] = transactionInvoices.length;\n\n      keys.push(rand);\n\n      emit customIdGenerated(rand);\n\n      emit invoiceGenerated(invoice.apesCustomer, invoice.destName, invoice.destPhone, invoice.destCountry,\n      invoice.destCity, invoice.destDeliverAddress, invoice.date, rand );\n\n      return rand;\n\n   }\n\n    function _generateRandomId(string memory _str) private view returns (uint) {\n        uint rand = uint(keccak256(abi.encodePacked(now,_str)));\n        return rand % idModulus;\n    }\n\n    function totalTransactions() public view returns (uint)\n    {\n        return transactionInvoices.length;\n    }\n\n\n    function checkifTransactIdExist(uint transactId) public view returns (uint){\n        return invoices[transactId];\n    }\n\n\n}\n",
  "sourcePath": "/Users/jesusvega/Desktop/App-dev/BlockChain/ApesContracts/contracts/Invoice.sol",
  "compiler": {
    "name": "solc",
    "version": "0.5.8+commit.23d335f2.Emscripten.clang"
  },
  "schemaVersion": "3.0.11",
  "updatedAt": "2019-09-20T16:10:52.999Z",
  "devdoc": {
    "methods": {
      "isOwner()": {
        "return": "true if `msg.sender` is the owner of the contract."
      },
      "owner()": {
        "return": "the address of the owner."
      },
      "renounceOwnership()": {
        "details": "Allows the current owner to relinquish control of the contract."
      },
      "transferOwnership(address)": {
        "details": "Allows the current owner to transfer control of the contract to a newOwner.",
        "params": {
          "newOwner": "The address to transfer ownership to."
        }
      }
    }
  },
  "userdoc": {
    "methods": {
      "renounceOwnership()": {
        "notice": "Renouncing to ownership will leave the contract without an owner. It will not be possible to call the functions with the `onlyOwner` modifier anymore."
      }
    }
  }
}