{
  "contractName": "Customers",
  "abi": [
    {
      "constant": true,
      "inputs": [
        {
          "name": "",
          "type": "uint64"
        }
      ],
      "name": "customersIds",
      "outputs": [
        {
          "name": "",
          "type": "uint32"
        }
      ],
      "payable": false,
      "stateMutability": "view",
      "type": "function"
    },
    {
      "constant": false,
      "inputs": [],
      "name": "renounceOwnership",
      "outputs": [],
      "payable": false,
      "stateMutability": "nonpayable",
      "type": "function"
    },
    {
      "constant": true,
      "inputs": [
        {
          "name": "",
          "type": "uint256"
        }
      ],
      "name": "BussinessIdentifications",
      "outputs": [
        {
          "name": "",
          "type": "uint64"
        }
      ],
      "payable": false,
      "stateMutability": "view",
      "type": "function"
    },
    {
      "constant": true,
      "inputs": [],
      "name": "owner",
      "outputs": [
        {
          "name": "",
          "type": "address"
        }
      ],
      "payable": false,
      "stateMutability": "view",
      "type": "function"
    },
    {
      "constant": true,
      "inputs": [],
      "name": "isOwner",
      "outputs": [
        {
          "name": "",
          "type": "bool"
        }
      ],
      "payable": false,
      "stateMutability": "view",
      "type": "function"
    },
    {
      "constant": false,
      "inputs": [
        {
          "name": "newOwner",
          "type": "address"
        }
      ],
      "name": "transferOwnership",
      "outputs": [],
      "payable": false,
      "stateMutability": "nonpayable",
      "type": "function"
    },
    {
      "anonymous": false,
      "inputs": [
        {
          "indexed": false,
          "name": "_bussinesid",
          "type": "uint64"
        },
        {
          "indexed": false,
          "name": "_bussinesName",
          "type": "string"
        },
        {
          "indexed": false,
          "name": "_contactPhone",
          "type": "string"
        },
        {
          "indexed": false,
          "name": "_createdAt",
          "type": "uint256"
        },
        {
          "indexed": false,
          "name": "_updatedAt",
          "type": "uint256"
        }
      ],
      "name": "newCustomerRegistered",
      "type": "event"
    },
    {
      "anonymous": false,
      "inputs": [
        {
          "indexed": true,
          "name": "previousOwner",
          "type": "address"
        },
        {
          "indexed": true,
          "name": "newOwner",
          "type": "address"
        }
      ],
      "name": "OwnershipTransferred",
      "type": "event"
    },
    {
      "constant": false,
      "inputs": [
        {
          "name": "_bussinessName",
          "type": "string"
        },
        {
          "name": "_bussinessId",
          "type": "uint64"
        },
        {
          "name": "_contactPhone",
          "type": "string"
        }
      ],
      "name": "registerCustomer",
      "outputs": [],
      "payable": false,
      "stateMutability": "nonpayable",
      "type": "function"
    },
    {
      "constant": true,
      "inputs": [],
      "name": "totalCustomers",
      "outputs": [
        {
          "name": "",
          "type": "uint256"
        }
      ],
      "payable": false,
      "stateMutability": "view",
      "type": "function"
    },
    {
      "constant": true,
      "inputs": [
        {
          "name": "_bussinessId",
          "type": "uint64"
        }
      ],
      "name": "getCustomerByBussinessId",
      "outputs": [
        {
          "name": "",
          "type": "uint64"
        },
        {
          "name": "",
          "type": "string"
        },
        {
          "name": "",
          "type": "string"
        },
        {
          "name": "",
          "type": "uint256"
        },
        {
          "name": "",
          "type": "uint256"
        }
      ],
      "payable": false,
      "stateMutability": "view",
      "type": "function"
    },
    {
      "constant": true,
      "inputs": [
        {
          "name": "_bussinessId",
          "type": "uint64"
        }
      ],
      "name": "checkIfBussinessIdExist",
      "outputs": [
        {
          "name": "",
          "type": "uint32"
        }
      ],
      "payable": false,
      "stateMutability": "view",
      "type": "function"
    }
  ],
  "bytecode": "0x6080604052336000806101000a81548173ffffffffffffffffffffffffffffffffffffffff021916908373ffffffffffffffffffffffffffffffffffffffff1602179055506000809054906101000a900473ffffffffffffffffffffffffffffffffffffffff1673ffffffffffffffffffffffffffffffffffffffff16600073ffffffffffffffffffffffffffffffffffffffff167f8be0079c531659141344cd1fd0a4f28419497f9722a3daafe3b4186f6b6457e060405160405180910390a3610e5e806100cf6000396000f3fe608060405234801561001057600080fd5b506004361061009e5760003560e01c80638f32d59b116100665780638f32d59b146101c3578063b830f262146101e5578063d4aa2b391461032b578063ef6b1bab14610383578063f2fde38b146104e95761009e565b80631866dcfb146100a35780633c03e508146100c1578063715018a61461011957806379ce3ce2146101235780638da5cb5b14610179575b600080fd5b6100ab61052d565b6040518082815260200191505060405180910390f35b6100f7600480360360208110156100d757600080fd5b81019080803567ffffffffffffffff16906020019092919050505061053a565b604051808263ffffffff1663ffffffff16815260200191505060405180910390f35b61012161055d565b005b61014f6004803603602081101561013957600080fd5b810190808035906020019092919050505061062d565b604051808267ffffffffffffffff1667ffffffffffffffff16815260200191505060405180910390f35b610181610668565b604051808273ffffffffffffffffffffffffffffffffffffffff1673ffffffffffffffffffffffffffffffffffffffff16815260200191505060405180910390f35b6101cb610691565b604051808215151515815260200191505060405180910390f35b61021b600480360360208110156101fb57600080fd5b81019080803567ffffffffffffffff1690602001909291905050506106e8565b604051808667ffffffffffffffff1667ffffffffffffffff1681526020018060200180602001858152602001848152602001838103835287818151815260200191508051906020019080838360005b8381101561028557808201518184015260208101905061026a565b50505050905090810190601f1680156102b25780820380516001836020036101000a031916815260200191505b50838103825286818151815260200191508051906020019080838360005b838110156102eb5780820151818401526020810190506102d0565b50505050905090810190601f1680156103185780820380516001836020036101000a031916815260200191505b5097505050505050505060405180910390f35b6103616004803603602081101561034157600080fd5b81019080803567ffffffffffffffff169060200190929190505050610915565b604051808263ffffffff1663ffffffff16815260200191505060405180910390f35b6104e76004803603606081101561039957600080fd5b81019080803590602001906401000000008111156103b657600080fd5b8201836020820111156103c857600080fd5b803590602001918460018302840111640100000000831117156103ea57600080fd5b91908080601f016020809104026020016040519081016040528093929190818152602001838380828437600081840152601f19601f820116905080830192505050505050509192919290803567ffffffffffffffff1690602001909291908035906020019064010000000081111561046157600080fd5b82018360208201111561047357600080fd5b8035906020019184600183028401116401000000008311171561049557600080fd5b91908080601f016020809104026020016040519081016040528093929190818152602001838380828437600081840152601f19601f820116905080830192505050505050509192919290505050610956565b005b61052b600480360360208110156104ff57600080fd5b81019080803573ffffffffffffffffffffffffffffffffffffffff169060200190929190505050610c50565b005b6000600180549050905090565b60036020528060005260406000206000915054906101000a900463ffffffff1681565b610565610691565b61056e57600080fd5b600073ffffffffffffffffffffffffffffffffffffffff166000809054906101000a900473ffffffffffffffffffffffffffffffffffffffff1673ffffffffffffffffffffffffffffffffffffffff167f8be0079c531659141344cd1fd0a4f28419497f9722a3daafe3b4186f6b6457e060405160405180910390a360008060006101000a81548173ffffffffffffffffffffffffffffffffffffffff021916908373ffffffffffffffffffffffffffffffffffffffff160217905550565b6002818154811061063a57fe5b9060005260206000209060049182820401919006600802915054906101000a900467ffffffffffffffff1681565b60008060009054906101000a900473ffffffffffffffffffffffffffffffffffffffff16905090565b60008060009054906101000a900473ffffffffffffffffffffffffffffffffffffffff1673ffffffffffffffffffffffffffffffffffffffff163373ffffffffffffffffffffffffffffffffffffffff1614905090565b60006060806000806000600360008867ffffffffffffffff1667ffffffffffffffff16815260200190815260200160002060009054906101000a900463ffffffff16905060008163ffffffff16118061074c57506001805490508163ffffffff1611155b61075557600080fd5b61075d610d65565b600180830363ffffffff168154811061077257fe5b9060005260206000209060040201604051806080016040529081600082018054600181600116156101000203166002900480601f0160208091040260200160405190810160405280929190818152602001828054600181600116156101000203166002900480156108245780601f106107f957610100808354040283529160200191610824565b820191906000526020600020905b81548152906001019060200180831161080757829003601f168201915b50505050508152602001600182018054600181600116156101000203166002900480601f0160208091040260200160405190810160405280929190818152602001828054600181600116156101000203166002900480156108c65780601f1061089b576101008083540402835291602001916108c6565b820191906000526020600020905b8154815290600101906020018083116108a957829003601f168201915b5050505050815260200160028201548152602001600382015481525050905087816000015182602001518360400151846060015183935082925096509650965096509650505091939590929450565b6000600360008367ffffffffffffffff1667ffffffffffffffff16815260200190815260200160002060009054906101000a900463ffffffff169050919050565b61095e610691565b61096757600080fd5b6000600360008467ffffffffffffffff1667ffffffffffffffff16815260200190815260200160002060009054906101000a900463ffffffff1663ffffffff169050600081146109b657600080fd5b6109be610d65565b6040518060800160405280868152602001848152602001428152602001428152509050600181908060018154018082558091505090600182039060005260206000209060040201600090919290919091506000820151816000019080519060200190610a2b929190610d8d565b506020820151816001019080519060200190610a48929190610d8d565b506040820151816002015560608201518160030155505050600180549050600360008667ffffffffffffffff1667ffffffffffffffff16815260200190815260200160002060006101000a81548163ffffffff021916908363ffffffff160217905550600284908060018154018082558091505090600182039060005260206000209060049182820401919006600802909192909190916101000a81548167ffffffffffffffff021916908367ffffffffffffffff160217905550507f70206b43b4f3d9c7585bc5e20071f219df6941111c9605ac55df6251d9eb56d2848260000151836020015184604001518560600151604051808667ffffffffffffffff1667ffffffffffffffff1681526020018060200180602001858152602001848152602001838103835287818151815260200191508051906020019080838360005b83811015610ba4578082015181840152602081019050610b89565b50505050905090810190601f168015610bd15780820380516001836020036101000a031916815260200191505b50838103825286818151815260200191508051906020019080838360005b83811015610c0a578082015181840152602081019050610bef565b50505050905090810190601f168015610c375780820380516001836020036101000a031916815260200191505b5097505050505050505060405180910390a15050505050565b610c58610691565b610c6157600080fd5b610c6a81610c6d565b50565b600073ffffffffffffffffffffffffffffffffffffffff168173ffffffffffffffffffffffffffffffffffffffff161415610ca757600080fd5b8073ffffffffffffffffffffffffffffffffffffffff166000809054906101000a900473ffffffffffffffffffffffffffffffffffffffff1673ffffffffffffffffffffffffffffffffffffffff167f8be0079c531659141344cd1fd0a4f28419497f9722a3daafe3b4186f6b6457e060405160405180910390a3806000806101000a81548173ffffffffffffffffffffffffffffffffffffffff021916908373ffffffffffffffffffffffffffffffffffffffff16021790555050565b6040518060800160405280606081526020016060815260200160008152602001600081525090565b828054600181600116156101000203166002900490600052602060002090601f016020900481019282601f10610dce57805160ff1916838001178555610dfc565b82800160010185558215610dfc579182015b82811115610dfb578251825591602001919060010190610de0565b5b509050610e099190610e0d565b5090565b610e2f91905b80821115610e2b576000816000905550600101610e13565b5090565b9056fea165627a7a72305820be0e5cceda1dce75e7a46f2e2cc4dd6f1a661e1f763a99cc60f4fb2b0e3cf04a0029",
  "source": "pragma solidity ^0.5.0;\n\nimport \"./zeppelin/Ownable.sol\";\n\ncontract Customers is Ownable{\n\n  struct Customer{\n    string businessName;\n    string contactPhone;\n    uint createdAt;\n    uint updatedAt;\n  }\n\n  Customer[] private customers;\n  uint64[] public BussinessIdentifications;\n  mapping ( uint64 => uint32 ) public customersIds;\n\n\n  function registerCustomer(string memory _bussinessName, uint64 _bussinessId,\n     string memory _contactPhone) public onlyOwner\n  {\n      uint  customerId = customersIds[_bussinessId];\n      require (customerId == 0);\n\n      Customer memory customer = Customer({\n        businessName:_bussinessName,\n        contactPhone:_contactPhone,\n        createdAt: now,\n        updatedAt: now\n      });\n\n      customers.push(customer);\n\n      customersIds[_bussinessId] = uint32(customers.length);\n\n      BussinessIdentifications.push(_bussinessId);\n\n      emit newCustomerRegistered(_bussinessId,customer.businessName,customer.contactPhone,\n      customer.createdAt,customer.updatedAt);\n\n  }\n\n  function totalCustomers() public view returns (uint)\n  {\n      return customers.length;\n  }\n\n  function getCustomerByBussinessId(uint64 _bussinessId) public view returns(uint64\n    ,string memory, string memory, uint, uint)\n  {\n      uint32  customerId = customersIds[_bussinessId];\n      require( (customerId > 0) || (customerId <= customers.length) );\n      Customer memory customer = customers[customerId - 1];\n      return(\n        _bussinessId,\n        customer.businessName,\n        customer.contactPhone,\n        customer.createdAt,\n        customer.updatedAt\n      );\n  }\n\n  function checkIfBussinessIdExist(uint64 _bussinessId)public view returns (uint32){\n      return customersIds[_bussinessId];\n  }\n\n\n  event newCustomerRegistered(uint64 _bussinesid,  string _bussinesName,\n     string _contactPhone, uint _createdAt, uint _updatedAt);\n\n\n}\n",
  "sourcePath": "/home/ubuntu/apesContracts/contracts/Customers.sol",
  "compiler": {
    "name": "solc",
    "version": "0.5.8+commit.23d335f2.Emscripten.clang"
  },
  "schemaVersion": "3.0.16",
  "updatedAt": "2019-10-29T16:50:50.274Z",
  "devdoc": {
    "methods": {
      "isOwner()": {
        "return": "true if `msg.sender` is the owner of the contract."
      },
      "owner()": {
        "return": "the address of the owner."
      },
      "renounceOwnership()": {
        "details": "Allows the current owner to relinquish control of the contract."
      },
      "transferOwnership(address)": {
        "details": "Allows the current owner to transfer control of the contract to a newOwner.",
        "params": {
          "newOwner": "The address to transfer ownership to."
        }
      }
    }
  },
  "userdoc": {
    "methods": {
      "renounceOwnership()": {
        "notice": "Renouncing to ownership will leave the contract without an owner. It will not be possible to call the functions with the `onlyOwner` modifier anymore."
      }
    }
  }
}