{
  "contractName": "Items",
  "abi": [
    {
      "constant": false,
      "inputs": [],
      "name": "renounceOwnership",
      "outputs": [],
      "payable": false,
      "stateMutability": "nonpayable",
      "type": "function"
    },
    {
      "constant": true,
      "inputs": [],
      "name": "owner",
      "outputs": [
        {
          "name": "",
          "type": "address"
        }
      ],
      "payable": false,
      "stateMutability": "view",
      "type": "function"
    },
    {
      "constant": true,
      "inputs": [],
      "name": "isOwner",
      "outputs": [
        {
          "name": "",
          "type": "bool"
        }
      ],
      "payable": false,
      "stateMutability": "view",
      "type": "function"
    },
    {
      "constant": false,
      "inputs": [
        {
          "name": "newOwner",
          "type": "address"
        }
      ],
      "name": "transferOwnership",
      "outputs": [],
      "payable": false,
      "stateMutability": "nonpayable",
      "type": "function"
    },
    {
      "anonymous": false,
      "inputs": [
        {
          "indexed": false,
          "name": "quantity",
          "type": "uint256"
        },
        {
          "indexed": false,
          "name": "description",
          "type": "string"
        },
        {
          "indexed": false,
          "name": "measures",
          "type": "string"
        },
        {
          "indexed": false,
          "name": "weight",
          "type": "string"
        },
        {
          "indexed": false,
          "name": "commercialValue",
          "type": "uint256"
        },
        {
          "indexed": false,
          "name": "serviceValue",
          "type": "uint256"
        },
        {
          "indexed": false,
          "name": "idTransaction",
          "type": "uint256"
        }
      ],
      "name": "newItemRegistered",
      "type": "event"
    },
    {
      "anonymous": false,
      "inputs": [
        {
          "indexed": true,
          "name": "previousOwner",
          "type": "address"
        },
        {
          "indexed": true,
          "name": "newOwner",
          "type": "address"
        }
      ],
      "name": "OwnershipTransferred",
      "type": "event"
    },
    {
      "constant": false,
      "inputs": [
        {
          "name": "_address",
          "type": "address"
        }
      ],
      "name": "setProformaServiceContractAddress",
      "outputs": [],
      "payable": false,
      "stateMutability": "nonpayable",
      "type": "function"
    },
    {
      "constant": true,
      "inputs": [],
      "name": "getProformaServiceContractAddress",
      "outputs": [
        {
          "name": "",
          "type": "address"
        }
      ],
      "payable": false,
      "stateMutability": "view",
      "type": "function"
    },
    {
      "constant": false,
      "inputs": [
        {
          "name": "_quantity",
          "type": "uint32"
        },
        {
          "name": "_description",
          "type": "string"
        },
        {
          "name": "_measures",
          "type": "string"
        },
        {
          "name": "_weight",
          "type": "string"
        },
        {
          "name": "_commercialValue",
          "type": "uint64"
        },
        {
          "name": "_serviceValue",
          "type": "uint64"
        },
        {
          "name": "_idTransaction",
          "type": "uint256"
        }
      ],
      "name": "registerItem",
      "outputs": [],
      "payable": false,
      "stateMutability": "nonpayable",
      "type": "function"
    },
    {
      "constant": true,
      "inputs": [
        {
          "name": "_id",
          "type": "uint256"
        }
      ],
      "name": "getitemById",
      "outputs": [
        {
          "name": "",
          "type": "uint32"
        },
        {
          "name": "",
          "type": "string"
        },
        {
          "name": "",
          "type": "string"
        },
        {
          "name": "",
          "type": "string"
        },
        {
          "name": "",
          "type": "uint64"
        },
        {
          "name": "",
          "type": "uint64"
        },
        {
          "name": "",
          "type": "uint256"
        },
        {
          "name": "",
          "type": "uint256"
        }
      ],
      "payable": false,
      "stateMutability": "view",
      "type": "function"
    },
    {
      "constant": true,
      "inputs": [
        {
          "name": "_transaction",
          "type": "uint256"
        }
      ],
      "name": "getItemsIdsByTransaction",
      "outputs": [
        {
          "name": "",
          "type": "uint256[]"
        }
      ],
      "payable": false,
      "stateMutability": "view",
      "type": "function"
    },
    {
      "constant": true,
      "inputs": [],
      "name": "totalItems",
      "outputs": [
        {
          "name": "",
          "type": "uint256"
        }
      ],
      "payable": false,
      "stateMutability": "view",
      "type": "function"
    }
  ],
  "bytecode": "0x60806040526011600155600154600a0a600255336000806101000a81548173ffffffffffffffffffffffffffffffffffffffff021916908373ffffffffffffffffffffffffffffffffffffffff1602179055506000809054906101000a900473ffffffffffffffffffffffffffffffffffffffff1673ffffffffffffffffffffffffffffffffffffffff16600073ffffffffffffffffffffffffffffffffffffffff167f8be0079c531659141344cd1fd0a4f28419497f9722a3daafe3b4186f6b6457e060405160405180910390a36112b0806100dd6000396000f3fe608060405234801561001057600080fd5b506004361061009e5760003560e01c8063715018a611610066578063715018a6146103a85780637e902af6146103b25780638da5cb5b146105dd5780638f32d59b14610627578063f2fde38b146106495761009e565b80631ae1ff4e146100a35780632799276d146102795780632c176b761461029757806352207297146102e1578063661716d114610364575b600080fd5b6100cf600480360360208110156100b957600080fd5b810190808035906020019092919050505061068d565b604051808963ffffffff1663ffffffff1681526020018060200180602001806020018867ffffffffffffffff1667ffffffffffffffff1681526020018767ffffffffffffffff1667ffffffffffffffff16815260200186815260200185815260200184810384528b818151815260200191508051906020019080838360005b8381101561016957808201518184015260208101905061014e565b50505050905090810190601f1680156101965780820380516001836020036101000a031916815260200191505b5084810383528a818151815260200191508051906020019080838360005b838110156101cf5780820151818401526020810190506101b4565b50505050905090810190601f1680156101fc5780820380516001836020036101000a031916815260200191505b50848103825289818151815260200191508051906020019080838360005b8381101561023557808201518184015260208101905061021a565b50505050905090810190601f1680156102625780820380516001836020036101000a031916815260200191505b509b50505050505050505050505060405180910390f35b61028161099c565b6040518082815260200191505060405180910390f35b61029f6109a9565b604051808273ffffffffffffffffffffffffffffffffffffffff1673ffffffffffffffffffffffffffffffffffffffff16815260200191505060405180910390f35b61030d600480360360208110156102f757600080fd5b81019080803590602001909291905050506109e4565b6040518080602001828103825283818151815260200191508051906020019060200280838360005b83811015610350578082015181840152602081019050610335565b505050509050019250505060405180910390f35b6103a66004803603602081101561037a57600080fd5b81019080803573ffffffffffffffffffffffffffffffffffffffff169060200190929190505050610aa4565b005b6103b0610af9565b005b6105db600480360360e08110156103c857600080fd5b81019080803563ffffffff169060200190929190803590602001906401000000008111156103f557600080fd5b82018360208201111561040757600080fd5b8035906020019184600183028401116401000000008311171561042957600080fd5b91908080601f016020809104026020016040519081016040528093929190818152602001838380828437600081840152601f19601f8201169050808301925050505050505091929192908035906020019064010000000081111561048c57600080fd5b82018360208201111561049e57600080fd5b803590602001918460018302840111640100000000831117156104c057600080fd5b91908080601f016020809104026020016040519081016040528093929190818152602001838380828437600081840152601f19601f8201169050808301925050505050505091929192908035906020019064010000000081111561052357600080fd5b82018360208201111561053557600080fd5b8035906020019184600183028401116401000000008311171561055757600080fd5b91908080601f016020809104026020016040519081016040528093929190818152602001838380828437600081840152601f19601f820116905080830192505050505050509192919290803567ffffffffffffffff169060200190929190803567ffffffffffffffff16906020019092919080359060200190929190505050610bc9565b005b6105e5610feb565b604051808273ffffffffffffffffffffffffffffffffffffffff1673ffffffffffffffffffffffffffffffffffffffff16815260200191505060405180910390f35b61062f611014565b604051808215151515815260200191505060405180910390f35b61068b6004803603602081101561065f57600080fd5b81019080803573ffffffffffffffffffffffffffffffffffffffff16906020019092919050505061106b565b005b600060608060606000806000806106a2611180565b60058a815481106106af57fe5b9060005260206000209060070201604051806101000160405290816000820160009054906101000a900463ffffffff1663ffffffff1663ffffffff168152602001600182018054600181600116156101000203166002900480601f0160208091040260200160405190810160405280929190818152602001828054600181600116156101000203166002900480156107885780601f1061075d57610100808354040283529160200191610788565b820191906000526020600020905b81548152906001019060200180831161076b57829003601f168201915b50505050508152602001600282018054600181600116156101000203166002900480601f01602080910402602001604051908101604052809291908181526020018280546001816001161561010002031660029004801561082a5780601f106107ff5761010080835404028352916020019161082a565b820191906000526020600020905b81548152906001019060200180831161080d57829003601f168201915b50505050508152602001600382018054600181600116156101000203166002900480601f0160208091040260200160405190810160405280929190818152602001828054600181600116156101000203166002900480156108cc5780601f106108a1576101008083540402835291602001916108cc565b820191906000526020600020905b8154815290600101906020018083116108af57829003601f168201915b505050505081526020016004820160009054906101000a900467ffffffffffffffff1667ffffffffffffffff1667ffffffffffffffff1681526020016004820160089054906101000a900467ffffffffffffffff1667ffffffffffffffff1667ffffffffffffffff168152602001600582015481526020016006820154815250509050806000015181602001518260400151836060015184608001518560a001518660c001518760e001518696508595508494509850985098509850985098509850985050919395975091939597565b6000600580549050905090565b60006109b3611014565b6109bc57600080fd5b600360009054906101000a900473ffffffffffffffffffffffffffffffffffffffff16905090565b6060806004600084815260200190815260200160002054604051908082528060200260200182016040528015610a295781602001602082028038833980820191505090505b509050600080905060008090505b600580549050811015610a99578460058281548110610a5257fe5b9060005260206000209060070201600501541415610a8c5780838381518110610a7757fe5b60200260200101818152505081806001019250505b8080600101915050610a37565b508192505050919050565b610aac611014565b610ab557600080fd5b80600360006101000a81548173ffffffffffffffffffffffffffffffffffffffff021916908373ffffffffffffffffffffffffffffffffffffffff16021790555050565b610b01611014565b610b0a57600080fd5b600073ffffffffffffffffffffffffffffffffffffffff166000809054906101000a900473ffffffffffffffffffffffffffffffffffffffff1673ffffffffffffffffffffffffffffffffffffffff167f8be0079c531659141344cd1fd0a4f28419497f9722a3daafe3b4186f6b6457e060405160405180910390a360008060006101000a81548173ffffffffffffffffffffffffffffffffffffffff021916908373ffffffffffffffffffffffffffffffffffffffff160217905550565b610bd1611014565b610bda57600080fd5b6000600360009054906101000a900473ffffffffffffffffffffffffffffffffffffffff1673ffffffffffffffffffffffffffffffffffffffff1663fa2464bb836040518263ffffffff1660e01b81526004018082815260200191505060206040518083038186803b158015610c4f57600080fd5b505afa158015610c63573d6000803e3d6000fd5b505050506040513d6020811015610c7957600080fd5b810190808051906020019092919050505090506000811415610c9a57600080fd5b60056040518061010001604052808a63ffffffff1681526020018981526020018881526020018781526020018667ffffffffffffffff1681526020018567ffffffffffffffff168152602001848152602001428152509080600181540180825580915050906001820390600052602060002090600702016000909192909190915060008201518160000160006101000a81548163ffffffff021916908363ffffffff1602179055506020820151816001019080519060200190610d5e9291906111df565b506040820151816002019080519060200190610d7b9291906111df565b506060820151816003019080519060200190610d989291906111df565b5060808201518160040160006101000a81548167ffffffffffffffff021916908367ffffffffffffffff16021790555060a08201518160040160086101000a81548167ffffffffffffffff021916908367ffffffffffffffff16021790555060c0820151816005015560e0820151816006015550505060046000838152602001908152602001600020600081548092919060010191905055507f28f9016093ce7919456f66ec87883ad8d8363fe4a4cb5f6d9dca6bf2e80dab5488888888888888604051808863ffffffff1681526020018060200180602001806020018767ffffffffffffffff1681526020018667ffffffffffffffff16815260200185815260200184810384528a818151815260200191508051906020019080838360005b83811015610ed3578082015181840152602081019050610eb8565b50505050905090810190601f168015610f005780820380516001836020036101000a031916815260200191505b50848103835289818151815260200191508051906020019080838360005b83811015610f39578082015181840152602081019050610f1e565b50505050905090810190601f168015610f665780820380516001836020036101000a031916815260200191505b50848103825288818151815260200191508051906020019080838360005b83811015610f9f578082015181840152602081019050610f84565b50505050905090810190601f168015610fcc5780820380516001836020036101000a031916815260200191505b509a505050505050505050505060405180910390a15050505050505050565b60008060009054906101000a900473ffffffffffffffffffffffffffffffffffffffff16905090565b60008060009054906101000a900473ffffffffffffffffffffffffffffffffffffffff1673ffffffffffffffffffffffffffffffffffffffff163373ffffffffffffffffffffffffffffffffffffffff1614905090565b611073611014565b61107c57600080fd5b61108581611088565b50565b600073ffffffffffffffffffffffffffffffffffffffff168173ffffffffffffffffffffffffffffffffffffffff1614156110c257600080fd5b8073ffffffffffffffffffffffffffffffffffffffff166000809054906101000a900473ffffffffffffffffffffffffffffffffffffffff1673ffffffffffffffffffffffffffffffffffffffff167f8be0079c531659141344cd1fd0a4f28419497f9722a3daafe3b4186f6b6457e060405160405180910390a3806000806101000a81548173ffffffffffffffffffffffffffffffffffffffff021916908373ffffffffffffffffffffffffffffffffffffffff16021790555050565b604051806101000160405280600063ffffffff168152602001606081526020016060815260200160608152602001600067ffffffffffffffff168152602001600067ffffffffffffffff16815260200160008152602001600081525090565b828054600181600116156101000203166002900490600052602060002090601f016020900481019282601f1061122057805160ff191683800117855561124e565b8280016001018555821561124e579182015b8281111561124d578251825591602001919060010190611232565b5b50905061125b919061125f565b5090565b61128191905b8082111561127d576000816000905550600101611265565b5090565b9056fea165627a7a72305820f8eda9b671cf2a322215666fb99f52b754834cbb206340349edfa28dfa309d930029",
  "source": "pragma solidity ^0.5.0;\n\nimport \"./zeppelin/Ownable.sol\";\n\ncontract ProformaServiceInterface{\n    function checkifTransactIdExist(uint) public view returns (uint);\n\n}\n\ncontract Items is Ownable{\n\n\n  uint private idDigits = 17;\n  uint private idModulus = 10 ** idDigits;\n\n  struct Item{\n    uint32 quantity;\n    string description;\n    string measures;\n    string weight;\n    uint64 commercialValue;\n    uint64 serviceValue;\n    uint idTransaction;\n    uint date;\n  }\n\n  ProformaServiceInterface proformaServiceContract;\n\n  mapping (uint => uint) itemsByTransactionCount;\n\n  Item[] items;\n\n  function setProformaServiceContractAddress(address _address) public onlyOwner  {\n    proformaServiceContract = ProformaServiceInterface(_address);\n  }\n\n  function getProformaServiceContractAddress() public view onlyOwner returns (ProformaServiceInterface) {\n    return proformaServiceContract;\n  }\n\n  function registerItem(uint32 _quantity, string memory _description, string memory _measures,\n  string memory _weight, uint64 _commercialValue, uint64 _serviceValue, uint _idTransaction) public onlyOwner {\n\n      uint existId = proformaServiceContract.checkifTransactIdExist(_idTransaction);\n      require(existId != 0);\n\n      items.push(Item({\n          quantity: _quantity,\n          description: _description,\n          measures: _measures,\n          weight: _weight,\n          commercialValue: _commercialValue,\n          serviceValue: _serviceValue,\n          idTransaction: _idTransaction,\n          date: now\n      }));\n\n      itemsByTransactionCount[_idTransaction]++;\n\n      emit newItemRegistered(_quantity,_description,_measures,_weight,_commercialValue,_serviceValue,_idTransaction);\n\n  }\n\n  function getitemById(uint _id) public view returns(uint32, string memory, string memory,\n    string memory, uint64, uint64, uint, uint){\n     Item memory item = items[_id];\n     return(\n         item.quantity,\n         item.description,\n         item.measures,\n         item.weight,\n         item.commercialValue,\n         item.serviceValue,\n         item.idTransaction,\n         item.date\n     );\n }\n\n  function getItemsIdsByTransaction(uint _transaction) public view returns( uint[] memory ){\n\n      uint[] memory idsItem = new uint[](itemsByTransactionCount[_transaction]);\n\n      uint count = 0;\n\n      for(uint i=0; i<items.length ; i++)\n      {\n          if(items[i].idTransaction ==  _transaction)\n          {\n              idsItem[count] = i;\n              count++;\n          }\n\n      }\n\n      return idsItem;\n  }\n\n  function totalItems() public view returns(uint)\n  {\n      return items.length;\n  }\n\n  event newItemRegistered(uint quantity, string description, string measures, string weight,\n  uint commercialValue, uint serviceValue, uint idTransaction);\n\n}\n",
  "sourcePath": "/home/ubuntu/apesContracts/contracts/Items.sol",
  "compiler": {
    "name": "solc",
    "version": "0.5.8+commit.23d335f2.Emscripten.clang"
  },
  "schemaVersion": "3.0.16",
  "updatedAt": "2019-10-29T16:50:50.286Z",
  "devdoc": {
    "methods": {
      "isOwner()": {
        "return": "true if `msg.sender` is the owner of the contract."
      },
      "owner()": {
        "return": "the address of the owner."
      },
      "renounceOwnership()": {
        "details": "Allows the current owner to relinquish control of the contract."
      },
      "transferOwnership(address)": {
        "details": "Allows the current owner to transfer control of the contract to a newOwner.",
        "params": {
          "newOwner": "The address to transfer ownership to."
        }
      }
    }
  },
  "userdoc": {
    "methods": {
      "renounceOwnership()": {
        "notice": "Renouncing to ownership will leave the contract without an owner. It will not be possible to call the functions with the `onlyOwner` modifier anymore."
      }
    }
  }
}