{
  "contractName": "TrackItems",
  "abi": [
    {
      "constant": false,
      "inputs": [],
      "name": "renounceOwnership",
      "outputs": [],
      "payable": false,
      "stateMutability": "nonpayable",
      "type": "function"
    },
    {
      "constant": true,
      "inputs": [],
      "name": "owner",
      "outputs": [
        {
          "name": "",
          "type": "address"
        }
      ],
      "payable": false,
      "stateMutability": "view",
      "type": "function"
    },
    {
      "constant": true,
      "inputs": [],
      "name": "isOwner",
      "outputs": [
        {
          "name": "",
          "type": "bool"
        }
      ],
      "payable": false,
      "stateMutability": "view",
      "type": "function"
    },
    {
      "constant": false,
      "inputs": [
        {
          "name": "newOwner",
          "type": "address"
        }
      ],
      "name": "transferOwnership",
      "outputs": [],
      "payable": false,
      "stateMutability": "nonpayable",
      "type": "function"
    },
    {
      "anonymous": false,
      "inputs": [
        {
          "indexed": false,
          "name": "systemId",
          "type": "uint256"
        },
        {
          "indexed": false,
          "name": "traceAction",
          "type": "string"
        },
        {
          "indexed": false,
          "name": "reportSource",
          "type": "string"
        },
        {
          "indexed": false,
          "name": "location",
          "type": "string"
        },
        {
          "indexed": false,
          "name": "itemIdentification",
          "type": "string"
        },
        {
          "indexed": false,
          "name": "customer",
          "type": "uint256"
        },
        {
          "indexed": false,
          "name": "date",
          "type": "uint256"
        }
      ],
      "name": "trackingRegistered",
      "type": "event"
    },
    {
      "anonymous": false,
      "inputs": [
        {
          "indexed": true,
          "name": "previousOwner",
          "type": "address"
        },
        {
          "indexed": true,
          "name": "newOwner",
          "type": "address"
        }
      ],
      "name": "OwnershipTransferred",
      "type": "event"
    },
    {
      "constant": false,
      "inputs": [
        {
          "name": "_systemId",
          "type": "uint256"
        },
        {
          "name": "_traceAction",
          "type": "string"
        },
        {
          "name": "_reportSource",
          "type": "string"
        },
        {
          "name": "_location",
          "type": "string"
        },
        {
          "name": "_itemIdentification",
          "type": "string"
        },
        {
          "name": "_customer",
          "type": "uint256"
        }
      ],
      "name": "registerTrack",
      "outputs": [],
      "payable": false,
      "stateMutability": "nonpayable",
      "type": "function"
    },
    {
      "constant": true,
      "inputs": [],
      "name": "totalTracks",
      "outputs": [
        {
          "name": "",
          "type": "uint256"
        }
      ],
      "payable": false,
      "stateMutability": "view",
      "type": "function"
    }
  ],
  "bytecode": "0x6080604052336000806101000a81548173ffffffffffffffffffffffffffffffffffffffff021916908373ffffffffffffffffffffffffffffffffffffffff1602179055506000809054906101000a900473ffffffffffffffffffffffffffffffffffffffff1673ffffffffffffffffffffffffffffffffffffffff16600073ffffffffffffffffffffffffffffffffffffffff167f8be0079c531659141344cd1fd0a4f28419497f9722a3daafe3b4186f6b6457e060405160405180910390a3610a84806100cf6000396000f3fe608060405234801561001057600080fd5b50600436106100625760003560e01c806340dee0b514610067578063715018a6146100855780638da5cb5b1461008f5780638f32d59b146100d9578063b8f03fac146100fb578063f2fde38b1461038f575b600080fd5b61006f6103d3565b6040518082815260200191505060405180910390f35b61008d6103e0565b005b6100976104b0565b604051808273ffffffffffffffffffffffffffffffffffffffff1673ffffffffffffffffffffffffffffffffffffffff16815260200191505060405180910390f35b6100e16104d9565b604051808215151515815260200191505060405180910390f35b61038d600480360360c081101561011157600080fd5b81019080803590602001909291908035906020019064010000000081111561013857600080fd5b82018360208201111561014a57600080fd5b8035906020019184600183028401116401000000008311171561016c57600080fd5b91908080601f016020809104026020016040519081016040528093929190818152602001838380828437600081840152601f19601f820116905080830192505050505050509192919290803590602001906401000000008111156101cf57600080fd5b8201836020820111156101e157600080fd5b8035906020019184600183028401116401000000008311171561020357600080fd5b91908080601f016020809104026020016040519081016040528093929190818152602001838380828437600081840152601f19601f8201169050808301925050505050505091929192908035906020019064010000000081111561026657600080fd5b82018360208201111561027857600080fd5b8035906020019184600183028401116401000000008311171561029a57600080fd5b91908080601f016020809104026020016040519081016040528093929190818152602001838380828437600081840152601f19601f820116905080830192505050505050509192919290803590602001906401000000008111156102fd57600080fd5b82018360208201111561030f57600080fd5b8035906020019184600183028401116401000000008311171561033157600080fd5b91908080601f016020809104026020016040519081016040528093929190818152602001838380828437600081840152601f19601f82011690508083019250505050505050919291929080359060200190929190505050610530565b005b6103d1600480360360208110156103a557600080fd5b81019080803573ffffffffffffffffffffffffffffffffffffffff169060200190929190505050610861565b005b6000600180549050905090565b6103e86104d9565b6103f157600080fd5b600073ffffffffffffffffffffffffffffffffffffffff166000809054906101000a900473ffffffffffffffffffffffffffffffffffffffff1673ffffffffffffffffffffffffffffffffffffffff167f8be0079c531659141344cd1fd0a4f28419497f9722a3daafe3b4186f6b6457e060405160405180910390a360008060006101000a81548173ffffffffffffffffffffffffffffffffffffffff021916908373ffffffffffffffffffffffffffffffffffffffff160217905550565b60008060009054906101000a900473ffffffffffffffffffffffffffffffffffffffff16905090565b60008060009054906101000a900473ffffffffffffffffffffffffffffffffffffffff1673ffffffffffffffffffffffffffffffffffffffff163373ffffffffffffffffffffffffffffffffffffffff1614905090565b6105386104d9565b61054157600080fd5b610549610976565b6040518060e0016040528088815260200183815260200187815260200186815260200185815260200184815260200142815250905060018190806001815401808255809150509060018203906000526020600020906007020160009091929091909150600082015181600001556020820151816001015560408201518160020190805190602001906105dc9291906109b3565b5060608201518160030190805190602001906105f99291906109b3565b5060808201518160040190805190602001906106169291906109b3565b5060a08201518160050190805190602001906106339291906109b3565b5060c082015181600601555050507faffd6540d29384f4bd0087677e4431af157ff98ae08ed09d29c0f17a449eaaec81600001518260400151836060015184608001518560a0015186602001518760c00151604051808881526020018060200180602001806020018060200187815260200186815260200185810385528b818151815260200191508051906020019080838360005b838110156106e35780820151818401526020810190506106c8565b50505050905090810190601f1680156107105780820380516001836020036101000a031916815260200191505b5085810384528a818151815260200191508051906020019080838360005b8381101561074957808201518184015260208101905061072e565b50505050905090810190601f1680156107765780820380516001836020036101000a031916815260200191505b50858103835289818151815260200191508051906020019080838360005b838110156107af578082015181840152602081019050610794565b50505050905090810190601f1680156107dc5780820380516001836020036101000a031916815260200191505b50858103825288818151815260200191508051906020019080838360005b838110156108155780820151818401526020810190506107fa565b50505050905090810190601f1680156108425780820380516001836020036101000a031916815260200191505b509b50505050505050505050505060405180910390a150505050505050565b6108696104d9565b61087257600080fd5b61087b8161087e565b50565b600073ffffffffffffffffffffffffffffffffffffffff168173ffffffffffffffffffffffffffffffffffffffff1614156108b857600080fd5b8073ffffffffffffffffffffffffffffffffffffffff166000809054906101000a900473ffffffffffffffffffffffffffffffffffffffff1673ffffffffffffffffffffffffffffffffffffffff167f8be0079c531659141344cd1fd0a4f28419497f9722a3daafe3b4186f6b6457e060405160405180910390a3806000806101000a81548173ffffffffffffffffffffffffffffffffffffffff021916908373ffffffffffffffffffffffffffffffffffffffff16021790555050565b6040518060e00160405280600081526020016000815260200160608152602001606081526020016060815260200160608152602001600081525090565b828054600181600116156101000203166002900490600052602060002090601f016020900481019282601f106109f457805160ff1916838001178555610a22565b82800160010185558215610a22579182015b82811115610a21578251825591602001919060010190610a06565b5b509050610a2f9190610a33565b5090565b610a5591905b80821115610a51576000816000905550600101610a39565b5090565b9056fea165627a7a7230582068850ca6e266b22aeec915e521ae57e79f4e60b1dab09cc0a87d7e4dfa4768f50029",
  "source": "pragma solidity ^0.5.0;\n\nimport \"./zeppelin/Ownable.sol\";\n\ncontract TrackItems is Ownable{\n\n    struct Track{\n      uint systemId;\n      uint customer;\n      string traceAction;\n      string reportSource;\n      string location;\n      string itemIdentification;\n      uint date;\n    }\n\n    Track[] private tracks;\n\n    function registerTrack(uint _systemId, string memory _traceAction, string memory _reportSource,\n        string memory _location, string memory _itemIdentification, uint _customer) public onlyOwner\n    {\n        Track memory track = Track({\n            systemId:_systemId,\n            traceAction:_traceAction,\n            reportSource:_reportSource,\n            location:_location,\n            itemIdentification:_itemIdentification,\n            date:now,\n            customer:_customer\n        });\n\n        tracks.push(track);\n\n        emit trackingRegistered( track.systemId, track.traceAction, track.reportSource,\n           track.location, track.itemIdentification, track.customer, track.date );\n\n    }\n\n    function totalTracks() public view returns(uint)\n    {\n      return tracks.length;\n    }\n\n    event trackingRegistered(uint systemId, string traceAction, string  reportSource,\n        string location, string itemIdentification, uint customer, uint date);\n\n\n}\n",
  "sourcePath": "/home/ubuntu/apesContracts/contracts/TrackItems.sol",
  "compiler": {
    "name": "solc",
    "version": "0.5.8+commit.23d335f2.Emscripten.clang"
  },
  "schemaVersion": "3.0.16",
  "updatedAt": "2019-10-29T16:50:50.291Z",
  "devdoc": {
    "methods": {
      "isOwner()": {
        "return": "true if `msg.sender` is the owner of the contract."
      },
      "owner()": {
        "return": "the address of the owner."
      },
      "renounceOwnership()": {
        "details": "Allows the current owner to relinquish control of the contract."
      },
      "transferOwnership(address)": {
        "details": "Allows the current owner to transfer control of the contract to a newOwner.",
        "params": {
          "newOwner": "The address to transfer ownership to."
        }
      }
    }
  },
  "userdoc": {
    "methods": {
      "renounceOwnership()": {
        "notice": "Renouncing to ownership will leave the contract without an owner. It will not be possible to call the functions with the `onlyOwner` modifier anymore."
      }
    }
  }
}